S01700004763634170706C69636174696F6E322E737265635A
S11300000C94A4040C94C1040C94C1040C94C10475
S11300100C94C1040C94C1040C94C1040C94AD0858
S11300200C94C1040C94C1040C94C1040C94C10438
S11300300C94C1040C94C1040C94C1040C94C10428
S11300400C94C1040C94C1040C94C1040C94C10418
S11300500C94C104352E2073656E642D6461746143
S113006000342E2073686F772D7072732D7374753E
S11300706400332E2054656D702D7472616669635B
S1130080204D6F6E00322E2053747564656E74209B
S11300904D676D7400312E20496E6974204174746B
S11300A0656E64616E636500060000000000000078
S11300B0000000000000000000000000000000023A
S11300C000007E03000000000000000000000000AB
S11300D00000000000000400000F0000000F0000FA
S11300E00000000000000000000000000008000004
S11300F040004803F8004E03F8004E0008000000DA
S1130100000000000618022402FF0F440244028487
S113011001000000000000000000000B00001C00B3
S1130120220022029C0160001000CC012202200265
S1130130C00108CC0132022202220252028C01E0E8
S11301400100020000000000000200000F00000097
S1130150000000000000000000000000000000009B
S1130160050000F0010C0602080110000000000068
S11301700000000000000004011002080C06F00159
S11301800000000000000000000000000000060065
S1130190000A0004001F0004000A00000000000020
S11301A0000000000007200020002000FC012000C7
S11301B020002000000000000000000002000800F1
S11301C00700000000000000000000000000000024
S11301D00000000420002000200020000000000097
S11301E00000000000000000000002000000030006
S11301F000000000000000000000000000000000FB
S11302000005000C800360001C00030000000000D7
S1130210000000000000000006FC010202020202CD
S1130220020202FC010000000000000000000006C1
S1130230000004020402FE030002000200000000A9
S1130240000000000000060403820242024202226F
S1130250021C02000000000000000000000604016F
S11302600202220222022202DC010000000000003D
S113027000000000066000500048004400FE0340F7
S11302800000000000000000000000061E01120231
S1130290120212021202E20100000000000000003B
S11302A0000006F8011402120212021202E0010018
S11302B000000000000000000006020002028201AB
S11302C062001A00060000000000000000000000A8
S11302D006DC012202220222022202DC01000000CA
S11302E000000000000000063C00420242024202FC
S11302F04201FC00000000000000000000000300B8
S113030000000018030000000000000000000000CE
S113031000000000000300000008180700000000AF
S113032000000000000000000000000008000020A1
S113033000200050005000880088000401000000E4
S113034000000008000090009000900090009000D1
S113035090009000000000000000080000040188E4
S11303600088005000500020002000000000000021
S1130370000504004203220012000C0000000000EB
S113038000000000000000000BF0000C030402F267
S1130390040A050A050A05FA0504010C01F0000720
S11303A00003E000980086009800E00000030000CD
S11303B000000000000006FE032202220222023C8A
S11303C002C0010000000000000000000007F80067
S11303D004010202020202020202040100000000FF
S11303E00000000007FE03020202020202020204ED
S11303F001F800000000000000000006FE032202D5
S11304002202220222022202000000000000000058
S1130410000006FE03220022002200220022000027
S113042000000000000000000007F80004010202C0
S1130430020242024202C403000000000000000065
S113044007FE0320002000200020002000FE0300FF
S113045000000000000000030202FE03020200008C
S11304600000000000000000000000000000040084
S11304700202020202FE010000000000000000006F
S1130480000000000006FE03200050008800040164
S113049002020000000000000000000005FE03004E
S11304A00200020002000200000000000000000040
S11304B000000009FE0306001800600080016000CF
S11304C018000600FE030000000007FE03060018E3
S11304D0002000C0000003FE030000000000000034
S11304E00008F800040102020202020202020401EE
S11304F0F80000000000000006FE03220022002293
S11305000022001C000000000000000000000008A1
S1130510F8000401020202020206020A0409F808B1
S113052000000000000007FE03220022006200A277
S1130530001C0100020000000000000000071C0174
S113054022022202220222022202C401000000002E
S11305500000000007020002000200FE0302000285
S1130560000200000000000000000007FE0000017F
S11305700002000200020001FE0000000000000072
S11305800000070E003000C0000003C00030000E61
S11305900000000000000000000B1E00E00100024B
S11305A0C001380006003800C0010002E0011E004E
S11305B00702020401D8002000D80004010202004E
S11305C0000000000000000702000C001000E0031F
S11305D010000C00020000000000000000000602F1
S11305E0038202620212020A0206020000000000F4
S11305F00000000000040000FF0F010801080000D3
S11306000000000000000000000000000503001CC2
S11306100060008003000C000000000000000000E7
S113062000000004000001080108FF0F00000000A2
S11306300000000000000000000009000010000895
S11306400004000200020004000800100000000082
S11306500007000800080008000800080008000857
S11306600000000000000000050000000000000180
S1130670000200000000000000000000000000066E
S113068080014802480248024801F00300000000CB
S113069000000000000006FF031002080208020820
S11306A002F0010000000000000000000005F0015D
S11306B0080208020802080200000000000000000E
S11306C00000000006F0010802080208020801FF09
S11306D0030000000000000000000006F0014802D2
S11306E048024802480270010000000000000000B7
S11306F00000050800FE03090009000100000000D5
S113070000000000000000000006F00108120812BA
S113071008120811F80F000000000000000000009B
S113072006FF031000080008000800F003000000A2
S113073000000000000000020000FA0300000000B6
S113074000000000000000000000000000000300A2
S1130750100810FA0F000000000000000000000064
S1130760000000000005FF034000A0001001080283
S1130770000000000000000000000000020000FF74
S11307800300000000000000000000000000000062
S11307900000000A0000F803100008000800F0033D
S11307A0100008000800F003000006F80310000819
S11307B00008000800F00300000000000000000032
S11307C00006F0010802080208020802F001000015
S11307D0000000000000000006F81F1002080208D4
S11307E0020802F001000000000000000000000602
S11307F0F0010802080208020801F81F00000000C6
S113080000000000000004F80310000800080000C5
S1130810000000000000000000000000000530019E
S11308204802480248029001000000000000000055
S113083000000000040800FE010802080200000095
S1130840000000000000000000000006F8010002A3
S1130850000200020001F803000000000000000094
S11308600000051800E0000003E00018000000008C
S1130870000000000000000000091800E000000370
S1130880E0001800E0000003E00018000000000091
S1130890050802B0014000B0010802000000000099
S11308A000000000000000051800E0180007E00048
S11308B0180000000000000000000000000005080F
S11308C00388024802280218020000000000000009
S11308D000000000000540004000BE0701080108B8
S11308E00000000000000000000000000300000001
S11308F000FF0F00000000000000000000000000E6
S11309000000000501080108BE0740004000000087
S1130910000000000000000000000800006000105B
S113092000100020004000400030000000000000E3
S11309300003FF030102FF030000000000000000A9
S1130940000000000000000011241FBECFE5D8E025
S1130950DEBFCDBF11E0A0E6B0E0ECEFF0E202C0F4
S113096005900D92AA3BB107D9F725E0AAEBB1E0B7
S113097001C01D92AD3CB207E1F70E94770E0C94C2
S11309807C100C94000082B3806882BB089582B30B
S11309908F7782BB089581B3806881BB0E94C704AE
S11309A00895E82FF0E0669566956695EE0FFF1FB3
S11309B0EE0FFF1FEE0FFF1FE753FE4FE60FF11D73
S11309C040830895E82FF0E0669566956695EE0FEE
S11309D0FF1FEE0FFF1FEE0FFF1FE753FE4FE60F43
S11309E0F11D80810895811107C08BB38F7E8BBB6D
S11309F08BB380628BBB0895813039F48BB38F7DC8
S1130A008BBB8BB380618BBB08958BB380628BBB34
S1130A108BB380618BBB08950E94F30484B38F77FA
S1130A2084BB8BB3877F8BBB8BB384608BBB8BB353
S1130A308D7F8BBB00008BB382608BBB000083B3C4
S1130A4080789BB39D7F9BBB92E09A95F1F700C0A1
S1130A5088238CF38BB38B7F8BBB84B3806884BB7C
S1130A60089580FF04C095B3916095BB03C095B30E
S1130A709E7F95BB81FF04C095B3926095BB03C074
S1130A8095B39D7F95BB82FF04C095B3946095BBDD
S1130A9003C095B39B7F95BB83FF04C095B3986057
S1130AA095BB03C095B3977F95BB84FF04C095B3F2
S1130AB0906195BB03C095B39F7E95BB85FF04C031
S1130AC095B3906295BB03C095B39F7D95BB86FF9C
S1130AD004C095B3906495BB03C095B39F7B95BB4D
S1130AE0882324F485B3806885BB03C085B38F77DE
S1130AF085BB8BB382608BBB00008BB38D7F8BBBBC
S1130B0000000895CF93DF93D82FC62F623021F0D1
S1130B10862F0E940C0506C080E00E940C0581E02F
S1130B200E940C058C2F0E94F3048BB3877F8BBB30
S1130B308BB38B7F8BBB8D2F0E943105DF91CF91BF
S1130B40089588238CF061E0803408F460E08034F8
S1130B5018F4282F206403C020EC280F206480930D
S1130B60C001822F0E9482050895803458F4982F82
S1130B709695969596958093C10162E0892F886B2E
S1130B800E9482050895CF93DF93C82FD62F623039
S1130B9021F0862F0E940C0506C080E00E940C05FF
S1130BA081E00E940C058D2F0E94F3048BB38860B2
S1130BB08BBB8BB38B7F8BBB8091C201813019F0CF
S1130BC08C2F809501C08C2F0E943105E0ECF1E060
S1130BD080818F5F8083803419F40E94A10505C051
S1130BE088231CF48FE78093C001DF91CF9108958F
S1130BF0CF93DF93D0E017C080E00E94A1058D2F32
S1130C000E94B505C0E00CC06091C1018C2F0E9408
S1130C10E20461E0C03408F460E00E94C305CF5FE1
S1130C20CC2394F7D85FD03438F3DF91CF91089573
S1130C30882314F08093C00108959091C1019034E9
S1130C4010F48093C1010895CF93C62F0E94180613
S1130C508C2F0E941D06CF91089584B3816084BBBC
S1130C6084B3826084BB84B3846084BB84B38860AF
S1130C7084BB84B3806184BB84B3806284BB84B34B
S1130C80806484BB84B3806884BB8AB380628ABB7B
S1130C908AB380618ABB8AB388608ABB8AB3826064
S1130CA08ABB8AB384608ABB8AB381608ABB8BB3F4
S1130CB0877F8BBB8BB38B7F8BBB8BB38D7F8BBBC6
S1130CC08BB38E7F8BBB81EE94E00197F1F700C06C
S1130CD000008BB381608BBB83ED90E30197F1F748
S1130CE000C0000062E08FE30E94820562E080ECB5
S1130CF00E94820560E080E00E942406E0ECF1E0BE
S1130D0081E08283178216821582118210820895EF
S1130D101F93CF93DF93182FD0E00BC0412F6D2F7B
S1130D208C2F0E94D104CF5F01C0C0E0CC23B4F764
S1130D30D85FD034D0F3DF91CF911F910895809183
S1130D40C201813011F480E001C08FEF0E94880657
S1130D5008956623E4F04034D0F42230C0F4E0EC8B
S1130D60F1E0948383836583468350E041505109C5
S1130D70CA0199230CF407969595879595958795BF
S1130D8095958795E0ECF1E08F5F87832087089540
S1130D903F924F925F926F927F928F929F92AF9207
S1130DA0BF92CF92DF92EF92FF920F931F93CF9354
S1130DB0DF93A0ECB1E04C9011963C9011978052D7
S1130DC015962C91159717965C901797259D900171
S1130DD011242F5F3F4F829FA001839F500D112448
S1130DE01396ED91FC9114974A018FEF881A980A93
S1130DF0E40FF51F7490842D870D1AF480E8782E83
S1130E007418832D869586958695952D980F99301F
S1130E1018F098E0592E581A832D8770B82E632C39
S1130E20A12C67C0662D842D0E9424067401EA0C4F
S1130E30F11C670181E0C81AD10800E041C080912B
S1130E40C3019091C401FC01EE0DFF1D24914B2DB3
S1130E5050E030E00B2C02C0220F331F0A94E2F75B
S1130E60122FAA20A1F0FC01EC0DFD1DE49188E0F5
S1130E7090E0841B950BF0E002C0F595E7958A9508
S1130E80E2F71E2F122B8091C701C80ED11C80914E
S1130E90C801813039F4E0ECF1E0618180810E9485
S1130EA0E204182BC0ECD1E06981888191E0980FAD
S1130EB09883412F0E94D1048F81E80EF11C0F5FAB
S1130EC0071508F4BCCF8091C801882341F0E0ECF9
S1130ED0F1E0618180810E94E204482F01C040E07A
S1130EE0E0ECF1E0618180810E94D10488E0680E29
S1130EF0A394A51408F496CF81E0851508F053C097
S1130F00662D842D0E9424068A0C911C81E0881A87
S1130F10910810E025C0C0ECD1E0F98008816F2D64
S1130F20802F0E94E204EB81FC81E80DF91D4491BD
S1130F3028E030E02B19310950E002C0559547955F
S1130F402A95E2F7482B9885913009F4482B6F2DA8
S1130F50802F0E94D1048091C701880E911C1F5FCD
S1130F601715C8F28091C801882399F0813041F4A3
S1130F70E0ECF1E0618180810E94E204482F0AC024
S1130F80E0ECF1E0618180810E94E204482F409509
S1130F9001C040E0E0ECF1E06181808191E0980FD4
S1130FA090830E94D104872D840D632D8F5F0E944E
S1130FB02406DF91CF911F910F91FF90EF90DF9066
S1130FC0CF90BF90AF909F908F907F906F905F90E5
S1130FD04F903F900895CF93DF93EC010DC0E0EC68
S1130FE0F1E09081258130E0290F311D2038310551
S1130FF034F421960E94C80688818111F0CFDF91D4
S1131000CF910895CF93DF93EC012196FC01849155
S113101012C0E0ECF1E09081258130E0290F311D10
S11310202038310554F40E94C8069E012F5F3F4FBB
S1131030FE018491E9018111ECCFDF91CF910895F4
S113104080E487B986E886B9089597B1907F877060
S1131050892B87B986B1806486B93699FECF84B16D
S113106095B1089587E00E942508BC0180E090E0D6
S11310700E94B90E20E030E040EA50E40E94470F9D
S113108020E030E048EC52E40E94470F20E030E0DA
S113109040E85AE30E94470F0E94830ECB01089553
S11310A00F931F93CF93DF93EB01811520E89207F1
S11310B039F48DE2888321E030E08FEF9FE702C0AE
S11310C020E030E0992334F491958195910901E071
S11310D010E002C000E010E00097A9F4FE01E20F66
S11310E0F31F80E380832F5F3F4F10C0FE01E20FA8
S11310F0F31F6AE070E00E94B40F805D8083862F46
S1131100972F2F5F3F4F1816190684F3012B39F0E0
S1131110FE01E20FF31F8DE280832F5F3F4FFE013C
S1131120E20FF31F1082C901019720E030E00DC0E7
S1131130DE01A20FB31F4C91FE01E80FF91F50818D
S11311405C9340832F5F3F4F01972817390784F33F
S1131150DF91CF911F910F9108951F920F920FB6B7
S11311600F9211242F933F934F935F936F937F9329
S11311708F939F93AF93BF93EF93FF938091BE019F
S11311809091BF0101969093BF018093BE0180911D
S1131190BE019091BF0184389340D8F00E949F060D
S11311A060E070E080E090E00E94240680E790E038
S11311B00E94EB078FE39DE023E0815090402040A4
S11311C0E1F700C000000E949F061092BF01109238
S11311D0BE01FF91EF91BF91AF919F918F917F914C
S11311E06F915F914F913F912F910F900FBE0F9090
S11311F01F901895EF92FF920F931F93CF93DF9355
S11312008A016115710581059105C1F480E3FA0134
S11312108083C1E0D0E019C07801EC0EFD1E2AE005
S113122030E040E050E00E94C80F605DF701608349
S1131230622F732F842F952F219602C0C0E0D0E037
S1131240611571058105910539F7F801EC0FFD1F52
S11312501082CE01019720E030E00DC0D801A20F2A
S1131260B31F4C91F801E80FF91F50815C93408340
S11312702F5F3F4F01972817390784F3DF91CF91F0
S11312801F910F91FF90EF90089581B3886081BB07
S113129082B3877F82BB81B38B7F81BB8EB5816034
S11312A08EBD1DBC1CBC089582B3886082BB85E3DF
S11312B08A95F1F7000082B3877F82BB089560911D
S11312C0BA017091BB018091BC019091BD012FE9DD
S11312D033E040E050E00E94C80FC9010895CF9266
S11312E0DF92FF920F931F93CF93DF93CDB7DEB7B7
S11312F02A970FB6F894DEBF0FBECDBF2FEF83ED54
S113130090E3215080409040E1F700C000000E942B
S11313109F06F12C00E010E00E945409829BFECF4E
S11313201DBC1CBC80E007C008B602FE04C098B710
S1131330946098BF8F5F8299F7CF4CB55DB560E03C
S113134070E04093BA015093BB016093BC01709369
S1131350BD018823E9F090E0A0E0B0E00197AF4F31
S1131360BF4FDC01992788274091BA015091BB01F6
S11313706091BC017091BD01840F951FA61FB71F1A
S11313808093BA019093BB01A093BC01B093BD01BB
S11313900E945F096C018A30910520F4081719072F
S11313A009F0F3940E94210A8332D9F00E949F0627
S11313B08F2D90E0A0E0B0E0AE014F5F5F4FBC0125
S11313C0CD010E94FA0861E070E081E090E00E94A3
S11313D02406CE0101960E94EB070E94F8058601BF
S11313E09BCF2A960FB6F894DEBF0FBECDBFDF9118
S11313F0CF911F910F91FF90DF90CF90089590BDF2
S113140089B988E18AB986E880BD08955D9BFECFDD
S11314108CB90895CF93DF93EC0103C00E94060AB0
S1131420219688818111FACFDF91CF91089587B3F6
S11314308F6087BB87B38F7087BB88B3806F88BB8F
S11314400895CF9330E046C088B3A32FB0E041E0C5
S113145050E0032E02C0440F551F0A94E2F7C42F34
S1131460942F9095892388BB83EC99E00197F1F739
S113147000C0000020E028C086B3622F70E0FB01AA
S1131480349690E002C095958795EA95E2F780FD41
S11314901AC08FE493EC0197F1F700C0000088B301
S11314A0C82BC8BBAA0FBB1FAA0FBB1FA05ABF4F94
S11314B0FD01E60FF71F80819091CB05891789F014
S11314C08093CB050FC02F5F2430B0F288B3482B34
S11314D048BB3F5F343008F4B7CF1092CB0580E0AF
S11314E001C080E0CF910895EF92FF920F931F9374
S11314F0CF93DF93CDB7DEB729970FB6F894DEBF4D
S11315000FBECDBF7C01FE01319689E0DF011D9243
S11315108A95E9F780E090E00E944C10082F10E0D3
S113152018C0612F70E0660F771F660F771F660F74
S1131530771F6F5F7F4F48E050E0CE0101960E9415
S11315403C10B701CE0101960E94FE0F892B29F0B1
S11315501F5F101730F381E001C080E029960FB6B9
S1131560F894DEBF0FBECDBFDF91CF911F910F91D5
S1131570FF90EF9008950E949F060E94F80561E095
S113158081E00E94240685E990E00E9402086CE054
S113159081E00E94240685E890E00E94020868E148
S11315A081E00E94240682E790E00E94020863E240
S11315B081E00E94240681E690E00E9402086EE227
S11315C081E00E94240684E590E00E9402080E94C3
S11315D0F8050895EF92FF921F93CF93DF93CDB751
S11315E0DEB729970FB6F894DEBF0FBECDBF0E94B9
S11315F09F0661E081E00E94240682E890E00E9458
S1131600EB076CE081E00E94240682E990E00E94EE
S1131610EB0768E181E00E9424068EE990E00E94D5
S1131620EB070E94F8051986E12CF12C0E94210A8F
S1131630182F8332D1F40E949F0661E081E00E945A
S113164024068EEA90E00E94EB070E94F8052FEF33
S113165087EA91E6215080409040E1F700C0000005
S11316600E949F060E94F80579C08823F9F28A3205
S1131670E9F2E1E0F0E0EC0FFD1FEE0DFF1D8083C9
S11316802FEFE21AF20A64E28E2D880F880F880F7A
S11316900E942406812F0E94C8060E94F80588E053
S11316A0E816F1041CF261E081E00E942406CE01F8
S11316B001960E94740A882399F10E949F0661E0B2
S11316C081E00E9424068FEB90E00E94EB070E94C9
S11316D0F80580E090E00E944C108093CC05682FC0
S11316E070E0660F771F660F771F660F771F6F5FB7
S11316F07F4F48E050E0CE0101960E946510609152
S1131700CC056F5F80E090E00E9454109FEF27EAC1
S113171081E6915020408040E1F700C000001EC0E7
S11317209FEF23ED80E3915020408040E1F700C01B
S113173000000E949F0661E081E00E9424068BEC79
S113174090E00E94EB070E94F8059FEF27EA81E6EC
S1131750915020408040E1F700C0000029960FB668
S1131760F894DEBF0FBECDBFDF91CF911F91FF90E4
S1131770EF900895EF92FF921F93CF93DF93CDB72D
S1131780DEB729970FB6F894DEBF0FBECDBF0E9417
S1131790C3042AEA3AEA8AEA9AE2215030408040B5
S11317A09040D9F70E94C7040E949F0661E081E03F
S11317B00E94240689ED90E00E94EB076CE081E032
S11317C00E94240682E990E00E94EB0768E181E030
S11317D00E9424068EE990E00E94EB070E94F8051F
S11317E01986E12CF12C0E94210A182F8332D1F49E
S11317F00E949F0661E081E00E9424068CEE90E046
S11318000E94EB070E94F8052FEF37EA81E621508A
S113181030408040E1F700C000000E949F060E9413
S1131820F8055CC08823F9F28A32E9F2E1E0F0E0DD
S1131830EC0FFD1FEE0DFF1D80839FEFE91AF90ADF
S113184064E28E2D880F880F880F0E942406812F52
S11318500E94C8060E94F80528E0E216F1041CF272
S113186061E081E00E942406CE0101960E94740A80
S11318708823B1F00E949F0661E081E00E94240663
S11318808DEF90E00E94EB070E94F8053FEF87EA96
S113189091E6315080409040E1F700C000001EC046
S11318A02FEF33ED80E3215030408040E1F700C05A
S11318B000000E949F0661E081E00E94240687E008
S11318C091E00E94EB070E94F8059FEF27EA31E6BA
S11318D0915020403040E1F700C0000029960FB637
S11318E0F894DEBF0FBECDBFDF91CF911F91FF9063
S11318F0EF900895EF92FF920F931F93CF93DF938E
S1131900CDB7DEB761970FB6F894DEBF0FBECDBF7B
S11319100E949F0661E081E00E9424068DE091E030
S11319200E94EB0780E090E00E944C10082F4AE0F0
S1131930BE01665F7F4F90E00E9407106CE081E07B
S11319400E942406CE010A960E94EB070E94F80525
S11319502FEF87EA91E6215080409040E1F700C0E4
S1131960000010E03FC0E12EF12CB701660F771F95
S1131970660F771F660F771F6F5F7F4F48E050E059
S1131980CE0101960E943C104AE0BE01625F7F4F87
S1131990C7010E94071019860E949F0661E081E03A
S11319A00E94240689E191E00E94EB0761E082E352
S11319B00E942406CE010E960E94EB076EE081E0A1
S11319C00E942406CE0101960E94EB070E94F805AE
S11319D02FEF87EA91E6215080409040E1F700C064
S11319E000001F5F101708F4BECF61960FB6F8947D
S11319F0DEBF0FBECDBFDF91CF911F910F91FF903E
S1131A00EF900895CF93DF93CDB7DEB72A970FB643
S1131A10F894DEBF0FBECDBF0E9420080E949F062F
S1131A2061E081E00E94240681E291E00E94EB07DC
S1131A300E94F8050E9445090E94F8056CE081E0C7
S1131A400E94240681E391E00E94EB070E94F805BE
S1131A500E946F092FEF87EA91E621508040904061
S1131A60E1F700C000000E949F0661E081E00E944F
S1131A70240681E491E00E94EB070E943208BE0133
S1131A806F5F7F4F0E94500864E181E00E9424064A
S1131A9085E591E00E94EB07CE0101960E94EB07D9
S1131AA08CE591E00E94EB0768E281E00E94240645
S1131AB08FE591E00E94EB070E94F8050E94210A3D
S1131AC0833289F60E949F062A960FB6F894DEBFE9
S1131AD00FBECDBFDF91CF910895EF92FF920F9388
S1131AE01F93CF93DF93CDB7DEB761970FB6F8940A
S1131AF0DEBF0FBECDBF0E949F0661E081E00E9461
S1131B00240687E691E00E94EB076CE081E00E94E6
S1131B10240687E791E00E94EB070E94F80587E618
S1131B2090E00E94FF098BE891E00E940A0A8BE989
S1131B3091E00E940A0A80E090E00E944C10082F75
S1131B404AE0BE01665F7F4F90E00E940710CE011D
S1131B500A960E940A0A8BE991E00E940A0A10E0A0
S1131B6037C0E12EF12CB701660F771F660F771F80
S1131B70660F771F6F5F7F4F48E050E0CE010196FC
S1131B800E943C104AE0BE01625F7F4FC7010E9481
S1131B90071019868EE991E00E940A0ACE010E967A
S1131BA00E940A0A8BE991E00E940A0ACE0101967A
S1131BB00E940A0A8BE991E00E940A0A2FEF87EA41
S1131BC091E6215080409040E1F700C000001F5F83
S1131BD0101738F22FEF87EA91E6215080409040A9
S1131BE0E1F700C0000061960FB6F894DEBF0FBEA7
S1131BF0CDBFDF91CF911F910F91FF90EF9008958A
S1131C000E94170A0E942D060E949F0621E04DE0C3
S1131C106BE088EA90E00E94A90661E081E00E94FE
S1131C20240685E990E00E9402086CE081E00E94AD
S1131C30240685E890E00E94020868E181E00E94A1
S1131C40240682E790E00E94020863E281E00E9499
S1131C50240681E690E00E9402086EE281E00E9480
S1131C60240684E590E00E9402080E94F8050E9480
S1131C70210A8823E1F38333A9F028F4813341F066
S1131C80823359F01EC0843391F08533A9F019C012
S1131C900E94EA0A0E94BB0AEACF0E94BA0B0E9481
S1131CA0BB0AE5CF0E94020D0E94BB0AE0CF0E944E
S1131CB07A0C0E94BB0ADBCF0E946D0D0E94BB0A06
S1131CC0D6CF0E949F0661E081E00E9424068AEA42
S1131CD091E00E94EB072FEF83ED90E321508040C9
S1131CE09040E1F700C000000E94F805C0CF0E94B8
S1131CF020080E94CB040E94170A87E690E00E9405
S1131D00FF090E94000E0E948A0E6894B1110C947F
S1131D10410F08950E94260F88F09F5798F0B92F1D
S1131D209927B751B0F0E1F0660F771F881F991F0C
S1131D301AF0BA95C9F714C0B13091F00E94400F5F
S1131D40B1E008950C94400F672F782F8827B85F6F
S1131D5039F0B93FCCF3869577956795B395D9F764
S1131D603EF490958095709561957F4F8F4F9F4F6E
S1131D700895E89409C097FB3EF49095809570957A
S1131D8061957F4F8F4F9F4F9923A9F0F92F96E9C3
S1131D90BB279395F695879577956795B795F11138
S1131DA0F8CFFAF4BB0F11F460FF1BC06F5F7F4FD5
S1131DB08F4F9F4F16C0882311F096E911C07723E7
S1131DC021F09EE8872F762F05C0662371F096E8F0
S1131DD0862F70E060E02AF09A95660F771F881FBF
S1131DE0DAF7880F9695879597F9089597F99F677D
S1131DF080E870E060E008959FEF80EC089500248F
S1131E000A941616170618060906089500240A945B
S1131E1012161306140605060895092E0394000CE1
S1131E2011F4882352F0BB0F40F4BF2B11F460FF70
S1131E3004C06F5F7F4F8F4F9F4F089557FD905899
S1131E40440F551F59F05F3F71F04795880F97FB7A
S1131E50991F61F09F3F79F0879508951216130634
S1131E601406551FF2CF4695F1DF08C01616170663
S1131E701806991FF1CF8695710561050894089598
S1131E80E894BB2766277727CB0197F908950E942A
S1131E905A0F0C940D0F0E94FF0E38F00E94060F8B
S1131EA020F0952311F00C94F60E0C94FC0E1124E2
S1131EB00C94410F0E941E0F70F3959FC1F3950F70
S1131EC050E0551F629FF001729FBB27F00DB11DBA
S1131ED0639FAA27F00DB11DAA1F649F6627B00D4A
S1131EE0A11D661F829F2227B00DA11D621F739F33
S1131EF0B00DA11D621F839FA00D611D221F749F41
S1131F003327A00D611D231F849F600D211D822F87
S1131F10762F6A2F11249F5750409AF0F1F08823AE
S1131F204AF0EE0FFF1FBB1F661F771F881F9150DB
S1131F305040A9F79E3F510580F00C94F60E0C9486
S1131F40410F5F3FE4F3983ED4F386957795679508
S1131F50B795F795E7959F5FC1F7FE2B880F911D05
S1131F609695879597F9089597FB072E16F4009494
S1131F7007D077FD09D00E94EA0F07FC05D03EF494
S1131F80909581959F4F0895709561957F4F089521
S1131F90A1E21A2EAA1BBB1BFD010DC0AA1FBB1F69
S1131FA0EE1FFF1FA217B307E407F50720F0A21BDB
S1131FB0B30BE40BF50B661F771F881F991F1A9448
S1131FC069F760957095809590959B01AC01BD0172
S1131FD0CF010895AA1BBB1B51E107C0AA1FBB1F59
S1131FE0A617B70710F0A61BB70B881F991F5A95A1
S1131FF0A9F780959095BC01CD010895FB01DC0102
S11320008D91019080190110D9F3990B0895BB2784
S11320104A3031F4992322F4BDE2909581959F4F83
S11320200C941310BB27FB015527AA27880F991F6F
S1132030AA1FA41710F0A41B83955051B9F7A05DF3
S1132040AA3308F0A95DA193009779F7B111B19370
S11320501192CB010C942C10DC01FC01672F7191BF
S11320607723E1F7329704C07C916D93708362917A
S1132070AE17BF07C8F30895DC01CB01FC01E19959
S1132080FECF06C0FFBBEEBBE09A31960DB20D92B7
S113209041505040B8F70895E199FECF9FBB8EBBE5
S11320A0E09A99278DB30895262FE199FECF9FBB1F
S11320B08EBBE09A01970DB2021631F02DBB0FB61C
S11320C0F894E29AE19A0FBE0895DC01CB0103C0B3
S11320D02D910E94701041505040D0F70895262F42
S11320E0E199FECF9FBB8EBB2DBB0FB6F894E29A4D
S10F20F0E19A0FBE01960895F894FFCF0A
S11320FC3132334134353642373839432A3023446C
S113210C417474656E64616E636520456E646564C8
S113211C2100417474656E64616E6365204D6F6457
S113212C6500456E746572204944732E200050720C
S113213C657373202320746F20456E642E004174E4
S113214C74656E64616E636520456E6465640052EB
S113215C65676973746572656421004475706C6994
S113216C63617465204944210053747564656E740D
S113217C204D616E6167656D656E74004D616E61B5
S113218C67656D656E7420456E646564006E6F746E
S113219C20666F756E64006578697374006E756D76
S11321AC20616C6C207374750073747564656E7443
S11321BC0054726166666963204D6F6E69746F7248
S11321CC00496E697469616C697A696E672E2E2E8A
S11321DC0054656D7065726174757265204D6F6E17
S11321EC69746F720054656D703A200020430023AB
S11321FC3D45584954200052657472696576696E80
S113220C6720446174610046656174757265206968
S113221C6E2050726F67726573730020206E756D3B
S113222C20616C6C207374752020000D0A00202032
S113223C73747564656E74202000496E76616C69E4
S10D224C64204F7074696F6E000087
S9030000FC
